{
	"contracts/calclator.sol": {
		"Calculator": {
			"abi": [
				{
					"inputs": [
						{
							"internalType": "uint256",
							"name": "num",
							"type": "uint256"
						}
					],
					"name": "add",
					"outputs": [],
					"stateMutability": "nonpayable",
					"type": "function"
				},
				{
					"inputs": [],
					"name": "get",
					"outputs": [
						{
							"internalType": "uint256",
							"name": "",
							"type": "uint256"
						}
					],
					"stateMutability": "view",
					"type": "function"
				},
				{
					"inputs": [
						{
							"internalType": "uint256",
							"name": "num",
							"type": "uint256"
						}
					],
					"name": "multiply",
					"outputs": [],
					"stateMutability": "nonpayable",
					"type": "function"
				},
				{
					"inputs": [],
					"name": "resetResult",
					"outputs": [],
					"stateMutability": "nonpayable",
					"type": "function"
				},
				{
					"inputs": [
						{
							"internalType": "uint256",
							"name": "num",
							"type": "uint256"
						}
					],
					"name": "subtract",
					"outputs": [],
					"stateMutability": "nonpayable",
					"type": "function"
				}
			],
			"devdoc": {
				"kind": "dev",
				"methods": {},
				"version": 1
			},
			"evm": {
				"assembly": "    /* \"contracts/calclator.sol\":63:499  contract Calculator {... */\n  mstore(0x40, 0x80)\n    /* \"contracts/calclator.sol\":113:114  0 */\n  0x00\n    /* \"contracts/calclator.sol\":96:114  uint256 result = 0 */\n  dup1\n  sstore\n    /* \"contracts/calclator.sol\":63:499  contract Calculator {... */\n  callvalue\n  dup1\n  iszero\n  tag_1\n  jumpi\n  0x00\n  dup1\n  revert\ntag_1:\n  pop\n  dataSize(sub_0)\n  dup1\n  dataOffset(sub_0)\n  0x00\n  codecopy\n  0x00\n  return\nstop\n\nsub_0: assembly {\n        /* \"contracts/calclator.sol\":63:499  contract Calculator {... */\n      mstore(0x40, 0x80)\n      callvalue\n      dup1\n      iszero\n      tag_1\n      jumpi\n      0x00\n      dup1\n      revert\n    tag_1:\n      pop\n      jumpi(tag_2, lt(calldatasize, 0x04))\n      shr(0xe0, calldataload(0x00))\n      dup1\n      0x1003e2d2\n      eq\n      tag_3\n      jumpi\n      dup1\n      0x1dc05f17\n      eq\n      tag_4\n      jumpi\n      dup1\n      0x456cf2f2\n      eq\n      tag_5\n      jumpi\n      dup1\n      0x6d4ce63c\n      eq\n      tag_6\n      jumpi\n      dup1\n      0xc6888fa1\n      eq\n      tag_7\n      jumpi\n    tag_2:\n      0x00\n      dup1\n      revert\n        /* \"contracts/calclator.sol\":123:188  function add(uint256 num) public {... */\n    tag_3:\n      tag_8\n      0x04\n      dup1\n      calldatasize\n      sub\n      dup2\n      add\n      swap1\n      tag_9\n      swap2\n      swap1\n      tag_10\n      jump\t// in\n    tag_9:\n      tag_11\n      jump\t// in\n    tag_8:\n      stop\n        /* \"contracts/calclator.sol\":196:266  function subtract(uint256 num) public {... */\n    tag_4:\n      tag_12\n      0x04\n      dup1\n      calldatasize\n      sub\n      dup2\n      add\n      swap1\n      tag_13\n      swap2\n      swap1\n      tag_10\n      jump\t// in\n    tag_13:\n      tag_14\n      jump\t// in\n    tag_12:\n      stop\n        /* \"contracts/calclator.sol\":437:496  function resetResult() public {... */\n    tag_5:\n      tag_15\n      tag_16\n      jump\t// in\n    tag_15:\n      stop\n        /* \"contracts/calclator.sol\":352:429  function get() public view returns (uint256) {... */\n    tag_6:\n      tag_17\n      tag_18\n      jump\t// in\n    tag_17:\n      mload(0x40)\n      tag_19\n      swap2\n      swap1\n      tag_20\n      jump\t// in\n    tag_19:\n      mload(0x40)\n      dup1\n      swap2\n      sub\n      swap1\n      return\n        /* \"contracts/calclator.sol\":274:344  function multiply(uint256 num) public {... */\n    tag_7:\n      tag_21\n      0x04\n      dup1\n      calldatasize\n      sub\n      dup2\n      add\n      swap1\n      tag_22\n      swap2\n      swap1\n      tag_10\n      jump\t// in\n    tag_22:\n      tag_23\n      jump\t// in\n    tag_21:\n      stop\n        /* \"contracts/calclator.sol\":123:188  function add(uint256 num) public {... */\n    tag_11:\n        /* \"contracts/calclator.sol\":177:180  num */\n      dup1\n        /* \"contracts/calclator.sol\":167:173  result */\n      0x00\n      dup1\n        /* \"contracts/calclator.sol\":167:180  result += num */\n      dup3\n      dup3\n      sload\n      tag_25\n      swap2\n      swap1\n      tag_26\n      jump\t// in\n    tag_25:\n      swap3\n      pop\n      pop\n      dup2\n      swap1\n      sstore\n      pop\n        /* \"contracts/calclator.sol\":123:188  function add(uint256 num) public {... */\n      pop\n      jump\t// out\n        /* \"contracts/calclator.sol\":196:266  function subtract(uint256 num) public {... */\n    tag_14:\n        /* \"contracts/calclator.sol\":255:258  num */\n      dup1\n        /* \"contracts/calclator.sol\":245:251  result */\n      0x00\n      dup1\n        /* \"contracts/calclator.sol\":245:258  result -= num */\n      dup3\n      dup3\n      sload\n      tag_28\n      swap2\n      swap1\n      tag_29\n      jump\t// in\n    tag_28:\n      swap3\n      pop\n      pop\n      dup2\n      swap1\n      sstore\n      pop\n        /* \"contracts/calclator.sol\":196:266  function subtract(uint256 num) public {... */\n      pop\n      jump\t// out\n        /* \"contracts/calclator.sol\":437:496  function resetResult() public {... */\n    tag_16:\n        /* \"contracts/calclator.sol\":487:488  0 */\n      0x00\n        /* \"contracts/calclator.sol\":478:484  result */\n      dup1\n        /* \"contracts/calclator.sol\":478:488  result = 0 */\n      dup2\n      swap1\n      sstore\n      pop\n        /* \"contracts/calclator.sol\":437:496  function resetResult() public {... */\n      jump\t// out\n        /* \"contracts/calclator.sol\":352:429  function get() public view returns (uint256) {... */\n    tag_18:\n        /* \"contracts/calclator.sol\":388:395  uint256 */\n      0x00\n        /* \"contracts/calclator.sol\":415:421  result */\n      dup1\n      sload\n        /* \"contracts/calclator.sol\":408:421  return result */\n      swap1\n      pop\n        /* \"contracts/calclator.sol\":352:429  function get() public view returns (uint256) {... */\n      swap1\n      jump\t// out\n        /* \"contracts/calclator.sol\":274:344  function multiply(uint256 num) public {... */\n    tag_23:\n        /* \"contracts/calclator.sol\":333:336  num */\n      dup1\n        /* \"contracts/calclator.sol\":323:329  result */\n      0x00\n      dup1\n        /* \"contracts/calclator.sol\":323:336  result *= num */\n      dup3\n      dup3\n      sload\n      tag_33\n      swap2\n      swap1\n      tag_34\n      jump\t// in\n    tag_33:\n      swap3\n      pop\n      pop\n      dup2\n      swap1\n      sstore\n      pop\n        /* \"contracts/calclator.sol\":274:344  function multiply(uint256 num) public {... */\n      pop\n      jump\t// out\n        /* \"#utility.yul\":88:205   */\n    tag_36:\n        /* \"#utility.yul\":197:198   */\n      0x00\n        /* \"#utility.yul\":194:195   */\n      dup1\n        /* \"#utility.yul\":187:199   */\n      revert\n        /* \"#utility.yul\":334:411   */\n    tag_38:\n        /* \"#utility.yul\":371:378   */\n      0x00\n        /* \"#utility.yul\":400:405   */\n      dup2\n        /* \"#utility.yul\":389:405   */\n      swap1\n      pop\n        /* \"#utility.yul\":334:411   */\n      swap2\n      swap1\n      pop\n      jump\t// out\n        /* \"#utility.yul\":417:539   */\n    tag_39:\n        /* \"#utility.yul\":490:514   */\n      tag_49\n        /* \"#utility.yul\":508:513   */\n      dup2\n        /* \"#utility.yul\":490:514   */\n      tag_38\n      jump\t// in\n    tag_49:\n        /* \"#utility.yul\":483:488   */\n      dup2\n        /* \"#utility.yul\":480:515   */\n      eq\n        /* \"#utility.yul\":470:533   */\n      tag_50\n      jumpi\n        /* \"#utility.yul\":529:530   */\n      0x00\n        /* \"#utility.yul\":526:527   */\n      dup1\n        /* \"#utility.yul\":519:531   */\n      revert\n        /* \"#utility.yul\":470:533   */\n    tag_50:\n        /* \"#utility.yul\":417:539   */\n      pop\n      jump\t// out\n        /* \"#utility.yul\":545:684   */\n    tag_40:\n        /* \"#utility.yul\":591:596   */\n      0x00\n        /* \"#utility.yul\":629:635   */\n      dup2\n        /* \"#utility.yul\":616:636   */\n      calldataload\n        /* \"#utility.yul\":607:636   */\n      swap1\n      pop\n        /* \"#utility.yul\":645:678   */\n      tag_52\n        /* \"#utility.yul\":672:677   */\n      dup2\n        /* \"#utility.yul\":645:678   */\n      tag_39\n      jump\t// in\n    tag_52:\n        /* \"#utility.yul\":545:684   */\n      swap3\n      swap2\n      pop\n      pop\n      jump\t// out\n        /* \"#utility.yul\":690:1019   */\n    tag_10:\n        /* \"#utility.yul\":749:755   */\n      0x00\n        /* \"#utility.yul\":798:800   */\n      0x20\n        /* \"#utility.yul\":786:795   */\n      dup3\n        /* \"#utility.yul\":777:784   */\n      dup5\n        /* \"#utility.yul\":773:796   */\n      sub\n        /* \"#utility.yul\":769:801   */\n      slt\n        /* \"#utility.yul\":766:885   */\n      iszero\n      tag_54\n      jumpi\n        /* \"#utility.yul\":804:883   */\n      tag_55\n      tag_36\n      jump\t// in\n    tag_55:\n        /* \"#utility.yul\":766:885   */\n    tag_54:\n        /* \"#utility.yul\":924:925   */\n      0x00\n        /* \"#utility.yul\":949:1002   */\n      tag_56\n        /* \"#utility.yul\":994:1001   */\n      dup5\n        /* \"#utility.yul\":985:991   */\n      dup3\n        /* \"#utility.yul\":974:983   */\n      dup6\n        /* \"#utility.yul\":970:992   */\n      add\n        /* \"#utility.yul\":949:1002   */\n      tag_40\n      jump\t// in\n    tag_56:\n        /* \"#utility.yul\":939:1002   */\n      swap2\n      pop\n        /* \"#utility.yul\":895:1012   */\n      pop\n        /* \"#utility.yul\":690:1019   */\n      swap3\n      swap2\n      pop\n      pop\n      jump\t// out\n        /* \"#utility.yul\":1025:1143   */\n    tag_41:\n        /* \"#utility.yul\":1112:1136   */\n      tag_58\n        /* \"#utility.yul\":1130:1135   */\n      dup2\n        /* \"#utility.yul\":1112:1136   */\n      tag_38\n      jump\t// in\n    tag_58:\n        /* \"#utility.yul\":1107:1110   */\n      dup3\n        /* \"#utility.yul\":1100:1137   */\n      mstore\n        /* \"#utility.yul\":1025:1143   */\n      pop\n      pop\n      jump\t// out\n        /* \"#utility.yul\":1149:1371   */\n    tag_20:\n        /* \"#utility.yul\":1242:1246   */\n      0x00\n        /* \"#utility.yul\":1280:1282   */\n      0x20\n        /* \"#utility.yul\":1269:1278   */\n      dup3\n        /* \"#utility.yul\":1265:1283   */\n      add\n        /* \"#utility.yul\":1257:1283   */\n      swap1\n      pop\n        /* \"#utility.yul\":1293:1364   */\n      tag_60\n        /* \"#utility.yul\":1361:1362   */\n      0x00\n        /* \"#utility.yul\":1350:1359   */\n      dup4\n        /* \"#utility.yul\":1346:1363   */\n      add\n        /* \"#utility.yul\":1337:1343   */\n      dup5\n        /* \"#utility.yul\":1293:1364   */\n      tag_41\n      jump\t// in\n    tag_60:\n        /* \"#utility.yul\":1149:1371   */\n      swap3\n      swap2\n      pop\n      pop\n      jump\t// out\n        /* \"#utility.yul\":1377:1557   */\n    tag_42:\n        /* \"#utility.yul\":1425:1502   */\n      0x4e487b7100000000000000000000000000000000000000000000000000000000\n        /* \"#utility.yul\":1422:1423   */\n      0x00\n        /* \"#utility.yul\":1415:1503   */\n      mstore\n        /* \"#utility.yul\":1522:1526   */\n      0x11\n        /* \"#utility.yul\":1519:1520   */\n      0x04\n        /* \"#utility.yul\":1512:1527   */\n      mstore\n        /* \"#utility.yul\":1546:1550   */\n      0x24\n        /* \"#utility.yul\":1543:1544   */\n      0x00\n        /* \"#utility.yul\":1536:1551   */\n      revert\n        /* \"#utility.yul\":1563:1754   */\n    tag_26:\n        /* \"#utility.yul\":1603:1606   */\n      0x00\n        /* \"#utility.yul\":1622:1642   */\n      tag_63\n        /* \"#utility.yul\":1640:1641   */\n      dup3\n        /* \"#utility.yul\":1622:1642   */\n      tag_38\n      jump\t// in\n    tag_63:\n        /* \"#utility.yul\":1617:1642   */\n      swap2\n      pop\n        /* \"#utility.yul\":1656:1676   */\n      tag_64\n        /* \"#utility.yul\":1674:1675   */\n      dup4\n        /* \"#utility.yul\":1656:1676   */\n      tag_38\n      jump\t// in\n    tag_64:\n        /* \"#utility.yul\":1651:1676   */\n      swap3\n      pop\n        /* \"#utility.yul\":1699:1700   */\n      dup3\n        /* \"#utility.yul\":1696:1697   */\n      dup3\n        /* \"#utility.yul\":1692:1701   */\n      add\n        /* \"#utility.yul\":1685:1701   */\n      swap1\n      pop\n        /* \"#utility.yul\":1720:1723   */\n      dup1\n        /* \"#utility.yul\":1717:1718   */\n      dup3\n        /* \"#utility.yul\":1714:1724   */\n      gt\n        /* \"#utility.yul\":1711:1747   */\n      iszero\n      tag_65\n      jumpi\n        /* \"#utility.yul\":1727:1745   */\n      tag_66\n      tag_42\n      jump\t// in\n    tag_66:\n        /* \"#utility.yul\":1711:1747   */\n    tag_65:\n        /* \"#utility.yul\":1563:1754   */\n      swap3\n      swap2\n      pop\n      pop\n      jump\t// out\n        /* \"#utility.yul\":1760:1954   */\n    tag_29:\n        /* \"#utility.yul\":1800:1804   */\n      0x00\n        /* \"#utility.yul\":1820:1840   */\n      tag_68\n        /* \"#utility.yul\":1838:1839   */\n      dup3\n        /* \"#utility.yul\":1820:1840   */\n      tag_38\n      jump\t// in\n    tag_68:\n        /* \"#utility.yul\":1815:1840   */\n      swap2\n      pop\n        /* \"#utility.yul\":1854:1874   */\n      tag_69\n        /* \"#utility.yul\":1872:1873   */\n      dup4\n        /* \"#utility.yul\":1854:1874   */\n      tag_38\n      jump\t// in\n    tag_69:\n        /* \"#utility.yul\":1849:1874   */\n      swap3\n      pop\n        /* \"#utility.yul\":1898:1899   */\n      dup3\n        /* \"#utility.yul\":1895:1896   */\n      dup3\n        /* \"#utility.yul\":1891:1900   */\n      sub\n        /* \"#utility.yul\":1883:1900   */\n      swap1\n      pop\n        /* \"#utility.yul\":1922:1923   */\n      dup2\n        /* \"#utility.yul\":1916:1920   */\n      dup2\n        /* \"#utility.yul\":1913:1924   */\n      gt\n        /* \"#utility.yul\":1910:1947   */\n      iszero\n      tag_70\n      jumpi\n        /* \"#utility.yul\":1927:1945   */\n      tag_71\n      tag_42\n      jump\t// in\n    tag_71:\n        /* \"#utility.yul\":1910:1947   */\n    tag_70:\n        /* \"#utility.yul\":1760:1954   */\n      swap3\n      swap2\n      pop\n      pop\n      jump\t// out\n        /* \"#utility.yul\":1960:2370   */\n    tag_34:\n        /* \"#utility.yul\":2000:2007   */\n      0x00\n        /* \"#utility.yul\":2023:2043   */\n      tag_73\n        /* \"#utility.yul\":2041:2042   */\n      dup3\n        /* \"#utility.yul\":2023:2043   */\n      tag_38\n      jump\t// in\n    tag_73:\n        /* \"#utility.yul\":2018:2043   */\n      swap2\n      pop\n        /* \"#utility.yul\":2057:2077   */\n      tag_74\n        /* \"#utility.yul\":2075:2076   */\n      dup4\n        /* \"#utility.yul\":2057:2077   */\n      tag_38\n      jump\t// in\n    tag_74:\n        /* \"#utility.yul\":2052:2077   */\n      swap3\n      pop\n        /* \"#utility.yul\":2112:2113   */\n      dup3\n        /* \"#utility.yul\":2109:2110   */\n      dup3\n        /* \"#utility.yul\":2105:2114   */\n      mul\n        /* \"#utility.yul\":2134:2164   */\n      tag_75\n        /* \"#utility.yul\":2152:2163   */\n      dup2\n        /* \"#utility.yul\":2134:2164   */\n      tag_38\n      jump\t// in\n    tag_75:\n        /* \"#utility.yul\":2123:2164   */\n      swap2\n      pop\n        /* \"#utility.yul\":2313:2314   */\n      dup3\n        /* \"#utility.yul\":2304:2311   */\n      dup3\n        /* \"#utility.yul\":2300:2315   */\n      div\n        /* \"#utility.yul\":2297:2298   */\n      dup5\n        /* \"#utility.yul\":2294:2316   */\n      eq\n        /* \"#utility.yul\":2274:2275   */\n      dup4\n        /* \"#utility.yul\":2267:2276   */\n      iszero\n        /* \"#utility.yul\":2247:2330   */\n      or\n        /* \"#utility.yul\":2224:2363   */\n      tag_76\n      jumpi\n        /* \"#utility.yul\":2343:2361   */\n      tag_77\n      tag_42\n      jump\t// in\n    tag_77:\n        /* \"#utility.yul\":2224:2363   */\n    tag_76:\n        /* \"#utility.yul\":2008:2370   */\n      pop\n        /* \"#utility.yul\":1960:2370   */\n      swap3\n      swap2\n      pop\n      pop\n      jump\t// out\n\n    auxdata: 0xa26469706673582212205752b5291bfd815b6a2c8875998138ad5bbe3c2abde441339dca8cb5e96c6dd364736f6c634300081a0033\n}\n",
				"bytecode": {
					"linkReferences": {},
					"object": "60806040525f80553480156011575f80fd5b506102c78061001f5f395ff3fe608060405234801561000f575f80fd5b5060043610610055575f3560e01c80631003e2d2146100595780631dc05f1714610075578063456cf2f2146100915780636d4ce63c1461009b578063c6888fa1146100b9575b5f80fd5b610073600480360381019061006e919061016a565b6100d5565b005b61008f600480360381019061008a919061016a565b6100ef565b005b610099610109565b005b6100a3610111565b6040516100b091906101a4565b60405180910390f35b6100d360048036038101906100ce919061016a565b610119565b005b805f808282546100e591906101ea565b9250508190555050565b805f808282546100ff919061021d565b9250508190555050565b5f8081905550565b5f8054905090565b805f808282546101299190610250565b9250508190555050565b5f80fd5b5f819050919050565b61014981610137565b8114610153575f80fd5b50565b5f8135905061016481610140565b92915050565b5f6020828403121561017f5761017e610133565b5b5f61018c84828501610156565b91505092915050565b61019e81610137565b82525050565b5f6020820190506101b75f830184610195565b92915050565b7f4e487b71000000000000000000000000000000000000000000000000000000005f52601160045260245ffd5b5f6101f482610137565b91506101ff83610137565b9250828201905080821115610217576102166101bd565b5b92915050565b5f61022782610137565b915061023283610137565b925082820390508181111561024a576102496101bd565b5b92915050565b5f61025a82610137565b915061026583610137565b925082820261027381610137565b9150828204841483151761028a576102896101bd565b5b509291505056fea26469706673582212205752b5291bfd815b6a2c8875998138ad5bbe3c2abde441339dca8cb5e96c6dd364736f6c634300081a0033",
					"opcodes": "PUSH1 0x80 PUSH1 0x40 MSTORE PUSH0 DUP1 SSTORE CALLVALUE DUP1 ISZERO PUSH1 0x11 JUMPI PUSH0 DUP1 REVERT JUMPDEST POP PUSH2 0x2C7 DUP1 PUSH2 0x1F PUSH0 CODECOPY PUSH0 RETURN INVALID PUSH1 0x80 PUSH1 0x40 MSTORE CALLVALUE DUP1 ISZERO PUSH2 0xF JUMPI PUSH0 DUP1 REVERT JUMPDEST POP PUSH1 0x4 CALLDATASIZE LT PUSH2 0x55 JUMPI PUSH0 CALLDATALOAD PUSH1 0xE0 SHR DUP1 PUSH4 0x1003E2D2 EQ PUSH2 0x59 JUMPI DUP1 PUSH4 0x1DC05F17 EQ PUSH2 0x75 JUMPI DUP1 PUSH4 0x456CF2F2 EQ PUSH2 0x91 JUMPI DUP1 PUSH4 0x6D4CE63C EQ PUSH2 0x9B JUMPI DUP1 PUSH4 0xC6888FA1 EQ PUSH2 0xB9 JUMPI JUMPDEST PUSH0 DUP1 REVERT JUMPDEST PUSH2 0x73 PUSH1 0x4 DUP1 CALLDATASIZE SUB DUP2 ADD SWAP1 PUSH2 0x6E SWAP2 SWAP1 PUSH2 0x16A JUMP JUMPDEST PUSH2 0xD5 JUMP JUMPDEST STOP JUMPDEST PUSH2 0x8F PUSH1 0x4 DUP1 CALLDATASIZE SUB DUP2 ADD SWAP1 PUSH2 0x8A SWAP2 SWAP1 PUSH2 0x16A JUMP JUMPDEST PUSH2 0xEF JUMP JUMPDEST STOP JUMPDEST PUSH2 0x99 PUSH2 0x109 JUMP JUMPDEST STOP JUMPDEST PUSH2 0xA3 PUSH2 0x111 JUMP JUMPDEST PUSH1 0x40 MLOAD PUSH2 0xB0 SWAP2 SWAP1 PUSH2 0x1A4 JUMP JUMPDEST PUSH1 0x40 MLOAD DUP1 SWAP2 SUB SWAP1 RETURN JUMPDEST PUSH2 0xD3 PUSH1 0x4 DUP1 CALLDATASIZE SUB DUP2 ADD SWAP1 PUSH2 0xCE SWAP2 SWAP1 PUSH2 0x16A JUMP JUMPDEST PUSH2 0x119 JUMP JUMPDEST STOP JUMPDEST DUP1 PUSH0 DUP1 DUP3 DUP3 SLOAD PUSH2 0xE5 SWAP2 SWAP1 PUSH2 0x1EA JUMP JUMPDEST SWAP3 POP POP DUP2 SWAP1 SSTORE POP POP JUMP JUMPDEST DUP1 PUSH0 DUP1 DUP3 DUP3 SLOAD PUSH2 0xFF SWAP2 SWAP1 PUSH2 0x21D JUMP JUMPDEST SWAP3 POP POP DUP2 SWAP1 SSTORE POP POP JUMP JUMPDEST PUSH0 DUP1 DUP2 SWAP1 SSTORE POP JUMP JUMPDEST PUSH0 DUP1 SLOAD SWAP1 POP SWAP1 JUMP JUMPDEST DUP1 PUSH0 DUP1 DUP3 DUP3 SLOAD PUSH2 0x129 SWAP2 SWAP1 PUSH2 0x250 JUMP JUMPDEST SWAP3 POP POP DUP2 SWAP1 SSTORE POP POP JUMP JUMPDEST PUSH0 DUP1 REVERT JUMPDEST PUSH0 DUP2 SWAP1 POP SWAP2 SWAP1 POP JUMP JUMPDEST PUSH2 0x149 DUP2 PUSH2 0x137 JUMP JUMPDEST DUP2 EQ PUSH2 0x153 JUMPI PUSH0 DUP1 REVERT JUMPDEST POP JUMP JUMPDEST PUSH0 DUP2 CALLDATALOAD SWAP1 POP PUSH2 0x164 DUP2 PUSH2 0x140 JUMP JUMPDEST SWAP3 SWAP2 POP POP JUMP JUMPDEST PUSH0 PUSH1 0x20 DUP3 DUP5 SUB SLT ISZERO PUSH2 0x17F JUMPI PUSH2 0x17E PUSH2 0x133 JUMP JUMPDEST JUMPDEST PUSH0 PUSH2 0x18C DUP5 DUP3 DUP6 ADD PUSH2 0x156 JUMP JUMPDEST SWAP2 POP POP SWAP3 SWAP2 POP POP JUMP JUMPDEST PUSH2 0x19E DUP2 PUSH2 0x137 JUMP JUMPDEST DUP3 MSTORE POP POP JUMP JUMPDEST PUSH0 PUSH1 0x20 DUP3 ADD SWAP1 POP PUSH2 0x1B7 PUSH0 DUP4 ADD DUP5 PUSH2 0x195 JUMP JUMPDEST SWAP3 SWAP2 POP POP JUMP JUMPDEST PUSH32 0x4E487B7100000000000000000000000000000000000000000000000000000000 PUSH0 MSTORE PUSH1 0x11 PUSH1 0x4 MSTORE PUSH1 0x24 PUSH0 REVERT JUMPDEST PUSH0 PUSH2 0x1F4 DUP3 PUSH2 0x137 JUMP JUMPDEST SWAP2 POP PUSH2 0x1FF DUP4 PUSH2 0x137 JUMP JUMPDEST SWAP3 POP DUP3 DUP3 ADD SWAP1 POP DUP1 DUP3 GT ISZERO PUSH2 0x217 JUMPI PUSH2 0x216 PUSH2 0x1BD JUMP JUMPDEST JUMPDEST SWAP3 SWAP2 POP POP JUMP JUMPDEST PUSH0 PUSH2 0x227 DUP3 PUSH2 0x137 JUMP JUMPDEST SWAP2 POP PUSH2 0x232 DUP4 PUSH2 0x137 JUMP JUMPDEST SWAP3 POP DUP3 DUP3 SUB SWAP1 POP DUP2 DUP2 GT ISZERO PUSH2 0x24A JUMPI PUSH2 0x249 PUSH2 0x1BD JUMP JUMPDEST JUMPDEST SWAP3 SWAP2 POP POP JUMP JUMPDEST PUSH0 PUSH2 0x25A DUP3 PUSH2 0x137 JUMP JUMPDEST SWAP2 POP PUSH2 0x265 DUP4 PUSH2 0x137 JUMP JUMPDEST SWAP3 POP DUP3 DUP3 MUL PUSH2 0x273 DUP2 PUSH2 0x137 JUMP JUMPDEST SWAP2 POP DUP3 DUP3 DIV DUP5 EQ DUP4 ISZERO OR PUSH2 0x28A JUMPI PUSH2 0x289 PUSH2 0x1BD JUMP JUMPDEST JUMPDEST POP SWAP3 SWAP2 POP POP JUMP INVALID LOG2 PUSH5 0x6970667358 0x22 SLT KECCAK256 JUMPI MSTORE 0xB5 0x29 SHL REVERT DUP2 JUMPDEST PUSH11 0x2C8875998138AD5BBE3C2A 0xBD 0xE4 COINBASE CALLER SWAP14 0xCA DUP13 0xB5 0xE9 PUSH13 0x6DD364736F6C634300081A0033 "
				},
				"gasEstimates": {
					"creation": {
						"codeDepositCost": "142200",
						"executionCost": "5193",
						"totalCost": "147393"
					},
					"external": {
						"add(uint256)": "infinite",
						"get()": "2476",
						"multiply(uint256)": "infinite",
						"resetResult()": "5178",
						"subtract(uint256)": "infinite"
					}
				},
				"methodIdentifiers": {
					"add(uint256)": "1003e2d2",
					"get()": "6d4ce63c",
					"multiply(uint256)": "c6888fa1",
					"resetResult()": "456cf2f2",
					"subtract(uint256)": "1dc05f17"
				}
			},
			"storageLayout": {
				"storage": [
					{
						"astId": 4,
						"contract": "contracts/calclator.sol:Calculator",
						"label": "result",
						"offset": 0,
						"slot": "0",
						"type": "t_uint256"
					}
				],
				"types": {
					"t_uint256": {
						"encoding": "inplace",
						"label": "uint256",
						"numberOfBytes": "32"
					}
				}
			},
			"userdoc": {
				"kind": "user",
				"methods": {},
				"version": 1
			}
		}
	}
}